:100000000C9436000C94DF060C94DF060C94DF068B
:100010000C94DF060C94DF060C94DF060C946B0442
:100020000C94DF060C943E040C94DF060C94DF065F
:100030000C94DF060C94DF060C94DF060C94DF06AC
:100040000C94DF060C94DF060C94DF060C94DF069C
:100050000C94DF06006000E08000E000E2000DC6C6
:1000600000E200E88000E800E900016311241FBEFF
:10007000CFE5D8E0DEBFCDBFE4E5F0E040E017C05B
:10008000B591A59135912591059107FD0CC09591EC
:100090008591EF01F92FE82F05900D92A217B30774
:1000A000D9F7FE0104C01D92A217B307E1F7EC36A1
:1000B000F40731F70E9467030C945E00F894FFCFB9
:1000C0000D0A7279727972797279727972797279AC
:1000D00072797279727972797279727972797279C8
:1000E0007279200074686520717569636B20627293
:1000F0006F776E20666F78206A756D7073206F76EB
:10010000657220746865206C617A7920646F67205D
:10011000313233343536373839300A0D0061736384
:1001200069692033303020626175640A0D0073689C
:100130006966742031373020487A0A0D007279726E
:100140007972797279727972797279727972797257
:100150007972797279727972797279727972797247
:0301600079200003
:01016300108B
:100164002F923F924F925F926F927F928F929F92C3
:10017400AF92BF92CF92DF92EF92FF920F931F93B1
:10018400CF93DF93CDB7DEB7E0970FB6F894DEBF19
:100194000FBECDBF3A2C4B2C5C2C6D2C7E2C8F2C9F
:1001A400902E212E0CE10E94B2056894AA24A6F890
:1001B4000F2EF8E7BF2EF02D0F2EFDE7CF2EF02DDA
:1001C400DD24D394E12CF12C00E010E00E944E06D3
:1001D40029833A834B835C836D837E838F839887E3
:1001E400232D342D452D562D672D782D892D922DB7
:1001F4000CE10E94B20500E00E944E0629873A876E
:100204004B875C876D877E878F87988B99818A81DE
:100214002B812C812D812E812F8128858F738064E1
:10022400998B8A8B1B8A1C8A1D8A1E8A1F8A188EA8
:1002340029813A814B815C816D817E818F81988592
:100244000EE00E9461053F733064298F3A8F1B8E44
:100254001C8E1D8E1E8E1F8E18A299858A852B8555
:100264002C852D852E852F8528898F73806899A3E9
:100274008AA31BA21CA21DA21EA21FA218A6298526
:100284003A854B855C856D857E858F8598890E942E
:1002940061053F73306829A73AA71BA61CA61DA6B3
:1002A4001EA61FA618AAE0EDF0E080E091E291837B
:1002B400808339892A898B898C898D898E898F8954
:1002C400888D32832383398D2A8D8B8D8C8D8D8DF2
:1002D4008E8D8F8D88A13483258339A12AA18BA18A
:1002E4008CA18DA18EA18FA188A53683278339A5E2
:1002F4002AA58BA58CA58DA58EA58FA588A9308749
:10030400218780E090EC9387828780E090EE958748
:10031400848780E090E29787868788E08093CB008B
:10032400E0960FB6F894DEBF0FBECDBFDF91CF913C
:100334001F910F91FF90EF90DF90CF90BF90AF90FF
:100344009F908F907F906F905F904F903F902F90F1
:0203540008950A
:1003560088B38B7F88BB88B38E7F88BB88B38D7F3D
:1003660088BB88B3826088BB88B38D7F88BB88B31F
:10037600826088BB88B38D7F88BB88B3826088BB68
:1003860088B38D7F88BB88B3826088BB88B3816061
:1003960088BB88B38D7F88BB88B3826088BB88B3EF
:1003A6008E7F88BB88B38D7F88BB88B3826088BB0D
:1003B60088B38D7F88BB88B3826088BB88B38D7F06
:1003C60088BB88B3826088BB88B38D7F88BB88B3BF
:1003D600826088BB88B38D7F88BB88B3826088BB08
:1003E60088B38D7F88BB88B3826088BB88B38D7FD6
:1003F60088BB88B3826088BB88B38D7F88BB88B38F
:10040600826088BB88B38D7F88BB88B3826088BBD7
:1004160088B38D7F88BB88B3826088BB88B38D7FA5
:1004260088BB88B3826088BB88B3846088BB82B38C
:0C0436008F7D82BB82B3806482BB08957E
:1004420088B38B7F88BB88B38E7F88BB88B38D7F50
:1004520088BB88B3826088BB88B38D7F88BB88B332
:10046200826088BB88B38D7F88BB88B3826088BB7B
:1004720088B38D7F88BB88B3826088BB88B38D7F49
:1004820088BB88B3826088BB88B38D7F88BB88B302
:10049200826088BB88B38D7F88BB88B3826088BB4B
:1004A20088B38D7F88BB88B3826088BB88B38D7F19
:1004B20088BB88B3826088BB88B38D7F88BB88B3D2
:1004C200826088BB88B38D7F88BB88B3826088BB1B
:1004D20088B38D7F88BB88B3826088BB88B38D7FE9
:1004E20088BB88B3826088BB88B38D7F88BB88B3A2
:1004F200826088BB88B38D7F88BB88B3826088BBEB
:1005020088B38D7F88BB88B3826088BB88B38460E0
:1005120088BB82B38F7B82BB82B3806282BB089529
:1005220010C00E94BE0658F00E94B70640F029F49F
:100532005F3F29F00C94D20651110C94C6060C941C
:10054200DC060E94FE0468F39923B1F3552391F36C
:10055200951B550BBB27AA2762177307840738F030
:100562009F5F5F4F220F331F441FAA1FA9F335D08D
:100572000E2E3AF0E0E832D091505040E695001C41
:10058200CAF72BD0FE2F29D0660F771F881FBB1FFB
:10059200261737074807AB07B0E809F0BB0B802DD9
:1005A200BF01FF2793585F4F3AF09E3F510578F005
:1005B2000C94D2060C94C6065F3FE4F3983ED4F343
:1005C200869577956795B795F7959F5FC9F7880FD9
:1005D200911D9695879597F90895E1E0660F771F2B
:1005E200881FBB1F621773078407BA0720F0621BBC
:0E05F200730B840BBA0BEE1F88F7E09508958B
:1006000011C00E94B70638F00E94BE0620F039F4EF
:100610009F3F19F426F40C94DC060EF4E095E7FBFA
:100620000C94D206E92F0E94FE0458F3BA17620711
:1006300073078407950720F079F4A6F50C94C50696
:100640000EF4E0950B2EBA2FA02D0B01B9019001ED
:100650000C01CA01A0011124FF27591B99F0593F31
:1006600050F4503E68F11A16F040A22F232F342F79
:100670004427585FF3CF469537952795A795F040C7
:100680005395C9F77EF41F16BA0B620B730B840BDC
:10069000BAF09150A1F0FF0FBB1F661F771F881F94
:1006A000C2F70EC0BA0F621F731F841F48F48795EC
:1006B00077956795B795F7959E3F08F0B0CF9395DE
:0E06C000880F08F09927EE0F979587950895FB
:1006CE0081B3806181BB82B3806182BB81B3806262
:1006DE0081BB81B3806481BBF89460E070E086E9F1
:1006EE0093E40E94B7040E9499050F2EF2EBAF2EF1
:1006FE00F02D0F2EFAEABF2EF02D0F2EF8E9CF2E89
:10070E00F02DD12CE12CF12C00E010E028E03AEA9B
:10071E0048E950E060E070E080E090E00E94B200B6
:10072E000E94A00602C00E94CC060E947B06811188
:10073E00FACF0E94A9060E942F0660EC70E080E0BE
:10074E000E94920464EE70E080E00E9492046DE1DB
:10075E0071E080E00E9492046EE271E080E00E94FF
:0E076E0092046DE371E080E00E949204B5CF2A
:10077C0088249924F401E401B0E49F93AA279A15E4
:10078C008B049C04ED05FE05CF05D007A10798F45A
:10079C00AD2FDC2FCF2FFE2FE92D982C892E982FE3
:1007AC00872F762F652F542F432F322F2227B850A7
:1007BC0031F7BF9127C01B2EBF91BB27220F331FD0
:1007CC00441F551F661F771F881F991F881C991C73
:1007DC00EE1FFF1FCC1FDD1FAA1FBB1F8A149B041B
:1007EC00EC05FD05CE05DF05A007B10748F08A181A
:1007FC009B08EC09FD09CE09DF09A00BB10B2160A8
:10080C001A94E1F62EF49401AF01BE01CD01000C57
:02081C0008953D
:10081E000E94060588F09F5798F0B92F9927B75177
:10082E00B0F0E1F0660F771F881F991F1AF0BA9586
:10083E00C9F714C0B13091F00E94C506B1E0089519
:10084E000C94C506672F782F8827B85F39F0B93F0B
:10085E00CCF3869577956795B395D9F73EF4909539
:0E086E008095709561957F4F8F4F9F4F089535
:10087C001F920F920FB60F9211242F933F934F9309
:10088C005F936F937F938F939F93AF93BF93EF93EC
:10089C00FF938091E6009091E7009DBD8CBDE091A7
:1008AC006100F09162000995FF91EF91BF91AF91BA
:1008BC009F918F917F916F915F914F913F912F916C
:0A08CC000F900FBE0F901F901895BB
:1008D6001F920F920FB60F9211242F933F934F93AF
:1008E6005F936F937F938F939F93AF93BF93EF9392
:1008F600FF93E0916100F09162000995FF91EF91FD
:10090600BF91AF919F918F917F916F915F914F9121
:0E0916003F912F910F900FBE0F901F901895DC
:10092400A82FCB0120E008C0E22FF0E00196A11D22
:10093400ED59FF4F30832F5FFC013491A7FD3081C7
:100944003111F2CFE22FF0E0ED59FF4F10821092F7
:10095400600080E295E09093620080936100789457
:0A0964000E9466068111FCCF089581
:10096E009B01AC018EB588608EBD8EB582608EBD4A
:10097E0089B7806189BF60E070E081EE99E40E94E2
:10098E00D80620E030E040E85FE30E94B0060E9407
:10099E000F047093E5006093E4008091E400909161
:0809AE00E5009BBD8ABD089520
:1009B6008091E2009091E300992324F488B381604A
:1009C60088BB03C088B38E7F88BB8091E20090917C
:1009D600E300880F991F9093E3008093E2008091D3
:1009E600E80081508093E80081E796E09093E1006B
:0609F6008093E00008956B
:1009FC0057FD9058440F551F59F05F3F71F04795C4
:100A0C00880F97FB991F61F09F3F79F087950895A8
:100A1C00121613061406551FF2CF4695F1DF08C0C7
:100A2C00161617061806991FF1CF869571056105E4
:040A3C00089408957D
:100A4000E091600081E08E0F80936000F0E0ED594E
:100A5000FF4F80818093C800811107C081EE96E02E
:100A6000909362008093610008950E94210288E0C3
:100A70008093C9008DE795E09093620080936100B8
:020A80000895D7
:100A820088B38B7F88BB8091CA00E82FF0E0EE0F1D
:100A9200FF1FE053FF4F208131813093E300209309
:100AA200E2008F5F8093CA0080E18093E8008BEDC3
:0C0AB20094E09093E1008093E000089530
:100ABE0097FB10F8169400080F93083098F0085022
:100ACE00232F342F452F562F672F782F892F902DB8
:100ADE00F4CF059497958795779567955795479594
:0C0AEE00379527950A95AAF70F910895F7
:100AFA008091C80080FF03C00E94AB0102C00E941F
:100B0A0021028091C80086958093C8008091C9000F
:100B1A0081508093C900811106C085E896E09093C0
:080B2A00620080936100089550
:100B320087B3846087BB87B3816087BB87B38260DA
:100B420087BB88B3846088BB88B3826088BB88B364
:100B5200816088BB82EE96E09093E1008093E00092
:020B62000895F4
:100B64000F93083090F0982F872F762F652F542FEE
:100B7400432F322F22270850F4CF220F331F441F54
:100B8400551F661F771F881F991F0A95B2F70F918B
:020B94000895C2
:100B960088B3846088BB9091CA008091CB00981777
:100BA60038F082EE96E09093E1008093E00008959D
:0E0BB60081E495E09093E1008093E0000895C3
:100BC4008091C70081508093C700882339F08AE55B
:100BD40096E09093620080936100089581EE96E020
:0A0BE4009093620080936100089571
:100BEE0088B3826088BB8091E800811107C08BECCE
:100BFE0095E09093E1008093E00008958BED94E0F2
:0A0C0E009093E1008093E000089548
:100C180088B3846088BB88B3826088BB88B38160EE
:100C280088BB1092CA0081E495E09093E10080931C
:040C3800E00008953B
:100C3C00092E0394000C11F4882352F0BB0F40F4DE
:100C4C00BF2B11F460FF04C06F5F7F4F8F4F9F4F1E
:020C5C000895F9
:100C5E0080E48093C7008AE596E0909362008093CB
:0E0C6E00610078940E9466068111FCCF089503
:100C7C008091C90081508093C900811106C087E919
:0C0C8C0096E09093620080936100089550
:100C9800689401C0E8948F929F92CF93DF930E944B
:0C0CA800BE03DF91CF919F908F900895C4
:100CB4000E94210288E08093C9008EE396E090931D
:080CC4006200809361000895B5
:100CCC00A89581E02091610030916200215E364050
:060CDC0009F480E0089518
:100CE20088B38D7F88BB87EF95E09093E100809376
:040CF200E000089581
:100CF60081E02091E0003091E100225E364009F467
:040D060080E00895EC
:100D0A000E94AB018EE896E09093620080936100A6
:020D1A0008953A
:100D1C000E94AB0180E295E09093620080936100A9
:020D2C00089528
:100D2E000E94AB0182EE95E0909362008093610089
:020D3E00089516
:100D40001092CA008CE096E09093E1008093E0005E
:020D5000089504
:0E0D520081EE96E09093620080936100089518
:0E0D60005058BB27AA270E9400030C941E06C1
:0E0D6E0000240A9416161706180609060895A2
:0E0D7C0000240A9412161306140605060895A4
:0E0D8A00E894BB2766277727CB0197F90895D9
:0C0D9800E091E000F091E1000995089561
:0C0DA40097F99F6780E870E060E0089518
:080DB0000E9491020C941E0642
:060DB8009FEF80EC08959E
:040DBE000C94000091
:020DC200089592
:020DC400089590
:020DC600E20643
:00000001FF
